{
  "_format": "hh-sol-artifact-1",
  "contractName": "Auction",
  "sourceName": "contracts/Auction.sol",
  "abi": [
    {
      "inputs": [],
      "stateMutability": "nonpayable",
      "type": "constructor"
    },
    {
      "anonymous": false,
      "inputs": [
        {
          "indexed": true,
          "internalType": "uint256",
          "name": "listingId",
          "type": "uint256"
        },
        {
          "indexed": false,
          "internalType": "uint256",
          "name": "amount",
          "type": "uint256"
        },
        {
          "indexed": true,
          "internalType": "address",
          "name": "bidder",
          "type": "address"
        }
      ],
      "name": "BidPlaced",
      "type": "event"
    },
    {
      "anonymous": false,
      "inputs": [
        {
          "indexed": true,
          "internalType": "uint256",
          "name": "listingId",
          "type": "uint256"
        },
        {
          "indexed": false,
          "internalType": "string",
          "name": "name",
          "type": "string"
        },
        {
          "indexed": false,
          "internalType": "uint256",
          "name": "minBid",
          "type": "uint256"
        }
      ],
      "name": "ListingCreated",
      "type": "event"
    },
    {
      "inputs": [
        {
          "internalType": "uint256",
          "name": "_id",
          "type": "uint256"
        },
        {
          "internalType": "string",
          "name": "_name",
          "type": "string"
        },
        {
          "internalType": "string",
          "name": "_imageHash",
          "type": "string"
        },
        {
          "internalType": "uint256",
          "name": "_minBid",
          "type": "uint256"
        },
        {
          "internalType": "uint256",
          "name": "_duration",
          "type": "uint256"
        },
        {
          "internalType": "address",
          "name": "_owner",
          "type": "address"
        }
      ],
      "name": "createListing",
      "outputs": [],
      "stateMutability": "nonpayable",
      "type": "function"
    },
    {
      "inputs": [
        {
          "internalType": "uint256",
          "name": "listingId",
          "type": "uint256"
        }
      ],
      "name": "endListing",
      "outputs": [],
      "stateMutability": "nonpayable",
      "type": "function"
    },
    {
      "inputs": [],
      "name": "fetchAllListings",
      "outputs": [
        {
          "components": [
            {
              "internalType": "uint256",
              "name": "id",
              "type": "uint256"
            },
            {
              "internalType": "string",
              "name": "name",
              "type": "string"
            },
            {
              "internalType": "string",
              "name": "imageHash",
              "type": "string"
            },
            {
              "internalType": "uint256",
              "name": "minBid",
              "type": "uint256"
            },
            {
              "internalType": "uint256",
              "name": "currentBid",
              "type": "uint256"
            },
            {
              "internalType": "address",
              "name": "highestBidder",
              "type": "address"
            },
            {
              "internalType": "address",
              "name": "owner",
              "type": "address"
            },
            {
              "internalType": "uint256",
              "name": "startTime",
              "type": "uint256"
            },
            {
              "internalType": "uint256",
              "name": "endTime",
              "type": "uint256"
            },
            {
              "internalType": "bool",
              "name": "isActive",
              "type": "bool"
            }
          ],
          "internalType": "struct Auction.Listing[]",
          "name": "",
          "type": "tuple[]"
        }
      ],
      "stateMutability": "view",
      "type": "function"
    },
    {
      "inputs": [
        {
          "internalType": "uint256",
          "name": "listingId",
          "type": "uint256"
        }
      ],
      "name": "fetchListing",
      "outputs": [
        {
          "components": [
            {
              "internalType": "uint256",
              "name": "id",
              "type": "uint256"
            },
            {
              "internalType": "string",
              "name": "name",
              "type": "string"
            },
            {
              "internalType": "string",
              "name": "imageHash",
              "type": "string"
            },
            {
              "internalType": "uint256",
              "name": "minBid",
              "type": "uint256"
            },
            {
              "internalType": "uint256",
              "name": "currentBid",
              "type": "uint256"
            },
            {
              "internalType": "address",
              "name": "highestBidder",
              "type": "address"
            },
            {
              "internalType": "address",
              "name": "owner",
              "type": "address"
            },
            {
              "internalType": "uint256",
              "name": "startTime",
              "type": "uint256"
            },
            {
              "internalType": "uint256",
              "name": "endTime",
              "type": "uint256"
            },
            {
              "internalType": "bool",
              "name": "isActive",
              "type": "bool"
            }
          ],
          "internalType": "struct Auction.Listing",
          "name": "",
          "type": "tuple"
        }
      ],
      "stateMutability": "view",
      "type": "function"
    },
    {
      "inputs": [
        {
          "internalType": "address",
          "name": "userAddress",
          "type": "address"
        }
      ],
      "name": "fetchUser",
      "outputs": [
        {
          "components": [
            {
              "internalType": "string",
              "name": "name",
              "type": "string"
            },
            {
              "internalType": "address",
              "name": "walletAddress",
              "type": "address"
            },
            {
              "internalType": "string",
              "name": "email",
              "type": "string"
            },
            {
              "internalType": "uint256[]",
              "name": "userBiddings",
              "type": "uint256[]"
            }
          ],
          "internalType": "struct Auction.User",
          "name": "",
          "type": "tuple"
        }
      ],
      "stateMutability": "view",
      "type": "function"
    },
    {
      "inputs": [
        {
          "internalType": "address",
          "name": "userAddress",
          "type": "address"
        },
        {
          "internalType": "uint256",
          "name": "index",
          "type": "uint256"
        }
      ],
      "name": "fetchUserBidding",
      "outputs": [
        {
          "internalType": "uint256",
          "name": "",
          "type": "uint256"
        }
      ],
      "stateMutability": "view",
      "type": "function"
    },
    {
      "inputs": [
        {
          "internalType": "address",
          "name": "userAddress",
          "type": "address"
        }
      ],
      "name": "fetchUserBiddings",
      "outputs": [
        {
          "internalType": "uint256[]",
          "name": "",
          "type": "uint256[]"
        }
      ],
      "stateMutability": "view",
      "type": "function"
    },
    {
      "inputs": [],
      "name": "listingCount",
      "outputs": [
        {
          "internalType": "uint256",
          "name": "",
          "type": "uint256"
        }
      ],
      "stateMutability": "view",
      "type": "function"
    },
    {
      "inputs": [
        {
          "internalType": "uint256",
          "name": "",
          "type": "uint256"
        }
      ],
      "name": "listings",
      "outputs": [
        {
          "internalType": "uint256",
          "name": "id",
          "type": "uint256"
        },
        {
          "internalType": "string",
          "name": "name",
          "type": "string"
        },
        {
          "internalType": "string",
          "name": "imageHash",
          "type": "string"
        },
        {
          "internalType": "uint256",
          "name": "minBid",
          "type": "uint256"
        },
        {
          "internalType": "uint256",
          "name": "currentBid",
          "type": "uint256"
        },
        {
          "internalType": "address",
          "name": "highestBidder",
          "type": "address"
        },
        {
          "internalType": "address",
          "name": "owner",
          "type": "address"
        },
        {
          "internalType": "uint256",
          "name": "startTime",
          "type": "uint256"
        },
        {
          "internalType": "uint256",
          "name": "endTime",
          "type": "uint256"
        },
        {
          "internalType": "bool",
          "name": "isActive",
          "type": "bool"
        }
      ],
      "stateMutability": "view",
      "type": "function"
    },
    {
      "inputs": [],
      "name": "owner",
      "outputs": [
        {
          "internalType": "address",
          "name": "",
          "type": "address"
        }
      ],
      "stateMutability": "view",
      "type": "function"
    },
    {
      "inputs": [
        {
          "internalType": "uint256",
          "name": "listingId",
          "type": "uint256"
        }
      ],
      "name": "placeBid",
      "outputs": [],
      "stateMutability": "payable",
      "type": "function"
    }
  ],
  "bytecode": "0x6080604052348015600f57600080fd5b50336000806101000a81548173ffffffffffffffffffffffffffffffffffffffff021916908373ffffffffffffffffffffffffffffffffffffffff1602179055506122c98061005f6000396000f3fe60806040526004361061009c5760003560e01c8063a9b07c2611610064578063a9b07c2614610179578063be6f0ea2146101a4578063dcae7f9d146101e1578063de74e57b1461021e578063fac2e3d814610264578063fc46105b1461028d5761009c565b8063683dea16146100a157806378dc3960146100de5780638da5cb5b146101095780639979ef45146101345780639c4bca1514610150575b600080fd5b3480156100ad57600080fd5b506100c860048036038101906100c3919061131a565b6102ca565b6040516100d59190611523565b60405180910390f35b3480156100ea57600080fd5b506100f3610515565b60405161010091906116e8565b60405180910390f35b34801561011557600080fd5b5061011e610802565b60405161012b9190611719565b60405180910390f35b61014e6004803603810190610149919061131a565b610826565b005b34801561015c57600080fd5b5061017760048036038101906101729190611895565b610aa5565b005b34801561018557600080fd5b5061018e610cad565b60405161019b9190611969565b60405180910390f35b3480156101b057600080fd5b506101cb60048036038101906101c69190611984565b610cb3565b6040516101d89190611ad1565b60405180910390f35b3480156101ed57600080fd5b5061020860048036038101906102039190611984565b610ede565b6040516102159190611b62565b60405180910390f35b34801561022a57600080fd5b506102456004803603810190610240919061131a565b610f78565b60405161025b9a99989796959493929190611bdd565b60405180910390f35b34801561027057600080fd5b5061028b6004803603810190610286919061131a565b611129565b005b34801561029957600080fd5b506102b460048036038101906102af9190611c87565b6111a8565b6040516102c19190611969565b60405180910390f35b6102d2611211565b60016000838152602001908152602001600020604051806101400160405290816000820154815260200160018201805461030b90611cf6565b80601f016020809104026020016040519081016040528092919081815260200182805461033790611cf6565b80156103845780601f1061035957610100808354040283529160200191610384565b820191906000526020600020905b81548152906001019060200180831161036757829003601f168201915b5050505050815260200160028201805461039d90611cf6565b80601f01602080910402602001604051908101604052809291908181526020018280546103c990611cf6565b80156104165780601f106103eb57610100808354040283529160200191610416565b820191906000526020600020905b8154815290600101906020018083116103f957829003601f168201915b5050505050815260200160038201548152602001600482015481526020016005820160009054906101000a900473ffffffffffffffffffffffffffffffffffffffff1673ffffffffffffffffffffffffffffffffffffffff1673ffffffffffffffffffffffffffffffffffffffff1681526020016006820160009054906101000a900473ffffffffffffffffffffffffffffffffffffffff1673ffffffffffffffffffffffffffffffffffffffff1673ffffffffffffffffffffffffffffffffffffffff16815260200160078201548152602001600882015481526020016009820160009054906101000a900460ff1615151515815250509050919050565b6060600060035467ffffffffffffffff8111156105355761053461173e565b5b60405190808252806020026020018201604052801561056e57816020015b61055b611211565b8152602001906001900390816105535790505b5090506000600190505b60035481116107fa576001600082815260200190815260200160002060405180610140016040529081600082015481526020016001820180546105ba90611cf6565b80601f01602080910402602001604051908101604052809291908181526020018280546105e690611cf6565b80156106335780601f1061060857610100808354040283529160200191610633565b820191906000526020600020905b81548152906001019060200180831161061657829003601f168201915b5050505050815260200160028201805461064c90611cf6565b80601f016020809104026020016040519081016040528092919081815260200182805461067890611cf6565b80156106c55780601f1061069a576101008083540402835291602001916106c5565b820191906000526020600020905b8154815290600101906020018083116106a857829003601f168201915b5050505050815260200160038201548152602001600482015481526020016005820160009054906101000a900473ffffffffffffffffffffffffffffffffffffffff1673ffffffffffffffffffffffffffffffffffffffff1673ffffffffffffffffffffffffffffffffffffffff1681526020016006820160009054906101000a900473ffffffffffffffffffffffffffffffffffffffff1673ffffffffffffffffffffffffffffffffffffffff1673ffffffffffffffffffffffffffffffffffffffff16815260200160078201548152602001600882015481526020016009820160009054906101000a900460ff161515151581525050826001836107cb9190611d56565b815181106107dc576107db611d8a565b5b602002602001018190525080806107f290611db9565b915050610578565b508091505090565b60008054906101000a900473ffffffffffffffffffffffffffffffffffffffff1681565b806001600082815260200190815260200160002060090160009054906101000a900460ff1661088a576040517f08c379a000000000000000000000000000000000000000000000000000000000815260040161088190611e4d565b60405180910390fd5b6000600160008481526020019081526020016000209050806008015442106108e7576040517f08c379a00000000000000000000000000000000000000000000000000000000081526004016108de90611eb9565b60405180910390fd5b8060040154341180156108fe575080600301543410155b61093d576040517f08c379a000000000000000000000000000000000000000000000000000000000815260040161093490611f25565b60405180910390fd5b600073ffffffffffffffffffffffffffffffffffffffff168160050160009054906101000a900473ffffffffffffffffffffffffffffffffffffffff1673ffffffffffffffffffffffffffffffffffffffff1614610a05578060050160009054906101000a900473ffffffffffffffffffffffffffffffffffffffff1673ffffffffffffffffffffffffffffffffffffffff166108fc82600401549081150290604051600060405180830381858888f19350505050158015610a03573d6000803e3d6000fd5b505b348160040181905550338160050160006101000a81548173ffffffffffffffffffffffffffffffffffffffff021916908373ffffffffffffffffffffffffffffffffffffffff1602179055503373ffffffffffffffffffffffffffffffffffffffff16837fbfbf2db1f7880e9487cbceeb181c4dce363d0ad1b6e73f5aa494ffb5d919149634604051610a989190611969565b60405180910390a3505050565b60036000815480929190610ab890611db9565b9190505550600060405180610140016040528088815260200187815260200186815260200185815260200160008152602001600073ffffffffffffffffffffffffffffffffffffffff1681526020018373ffffffffffffffffffffffffffffffffffffffff1681526020014281526020018442610b359190611f45565b81526020016001151581525090508060016000898152602001908152602001600020600082015181600001556020820151816001019081610b769190612125565b506040820151816002019081610b8c9190612125565b50606082015181600301556080820151816004015560a08201518160050160006101000a81548173ffffffffffffffffffffffffffffffffffffffff021916908373ffffffffffffffffffffffffffffffffffffffff16021790555060c08201518160060160006101000a81548173ffffffffffffffffffffffffffffffffffffffff021916908373ffffffffffffffffffffffffffffffffffffffff16021790555060e0820151816007015561010082015181600801556101208201518160090160006101000a81548160ff0219169083151502179055509050506003547fece1ad6d0c129fd009b5b7a8378a607987b793fa34f5bc7a400ead0a1478995e8786604051610c9c9291906121f7565b60405180910390a250505050505050565b60035481565b610cbb611292565b600260008373ffffffffffffffffffffffffffffffffffffffff1673ffffffffffffffffffffffffffffffffffffffff168152602001908152602001600020604051806080016040529081600082018054610d1590611cf6565b80601f0160208091040260200160405190810160405280929190818152602001828054610d4190611cf6565b8015610d8e5780601f10610d6357610100808354040283529160200191610d8e565b820191906000526020600020905b815481529060010190602001808311610d7157829003601f168201915b505050505081526020016001820160009054906101000a900473ffffffffffffffffffffffffffffffffffffffff1673ffffffffffffffffffffffffffffffffffffffff1673ffffffffffffffffffffffffffffffffffffffff168152602001600282018054610dfd90611cf6565b80601f0160208091040260200160405190810160405280929190818152602001828054610e2990611cf6565b8015610e765780601f10610e4b57610100808354040283529160200191610e76565b820191906000526020600020905b815481529060010190602001808311610e5957829003601f168201915b5050505050815260200160038201805480602002602001604051908101604052809291908181526020018280548015610ece57602002820191906000526020600020905b815481526020019060010190808311610eba575b5050505050815250509050919050565b6060600260008373ffffffffffffffffffffffffffffffffffffffff1673ffffffffffffffffffffffffffffffffffffffff168152602001908152602001600020600301805480602002602001604051908101604052809291908181526020018280548015610f6c57602002820191906000526020600020905b815481526020019060010190808311610f58575b50505050509050919050565b6001602052806000526040600020600091509050806000015490806001018054610fa190611cf6565b80601f0160208091040260200160405190810160405280929190818152602001828054610fcd90611cf6565b801561101a5780601f10610fef5761010080835404028352916020019161101a565b820191906000526020600020905b815481529060010190602001808311610ffd57829003601f168201915b50505050509080600201805461102f90611cf6565b80601f016020809104026020016040519081016040528092919081815260200182805461105b90611cf6565b80156110a85780601f1061107d576101008083540402835291602001916110a8565b820191906000526020600020905b81548152906001019060200180831161108b57829003601f168201915b5050505050908060030154908060040154908060050160009054906101000a900473ffffffffffffffffffffffffffffffffffffffff16908060060160009054906101000a900473ffffffffffffffffffffffffffffffffffffffff16908060070154908060080154908060090160009054906101000a900460ff1690508a565b60006001600083815260200190815260200160002090508060080154421015611187576040517f08c379a000000000000000000000000000000000000000000000000000000000815260040161117e90612273565b60405180910390fd5b60008160090160006101000a81548160ff0219169083151502179055505050565b6000600260008473ffffffffffffffffffffffffffffffffffffffff1673ffffffffffffffffffffffffffffffffffffffff16815260200190815260200160002060030182815481106111fe576111fd611d8a565b5b9060005260206000200154905092915050565b6040518061014001604052806000815260200160608152602001606081526020016000815260200160008152602001600073ffffffffffffffffffffffffffffffffffffffff168152602001600073ffffffffffffffffffffffffffffffffffffffff16815260200160008152602001600081526020016000151581525090565b604051806080016040528060608152602001600073ffffffffffffffffffffffffffffffffffffffff16815260200160608152602001606081525090565b6000604051905090565b600080fd5b600080fd5b6000819050919050565b6112f7816112e4565b811461130257600080fd5b50565b600081359050611314816112ee565b92915050565b6000602082840312156113305761132f6112da565b5b600061133e84828501611305565b91505092915050565b611350816112e4565b82525050565b600081519050919050565b600082825260208201905092915050565b60005b83811015611390578082015181840152602081019050611375565b60008484015250505050565b6000601f19601f8301169050919050565b60006113b882611356565b6113c28185611361565b93506113d2818560208601611372565b6113db8161139c565b840191505092915050565b600073ffffffffffffffffffffffffffffffffffffffff82169050919050565b6000611411826113e6565b9050919050565b61142181611406565b82525050565b60008115159050919050565b61143c81611427565b82525050565b60006101408301600083015161145b6000860182611347565b506020830151848203602086015261147382826113ad565b9150506040830151848203604086015261148d82826113ad565b91505060608301516114a26060860182611347565b5060808301516114b56080860182611347565b5060a08301516114c860a0860182611418565b5060c08301516114db60c0860182611418565b5060e08301516114ee60e0860182611347565b50610100830151611503610100860182611347565b50610120830151611518610120860182611433565b508091505092915050565b6000602082019050818103600083015261153d8184611442565b905092915050565b600081519050919050565b600082825260208201905092915050565b6000819050602082019050919050565b60006101408301600083015161158a6000860182611347565b50602083015184820360208601526115a282826113ad565b915050604083015184820360408601526115bc82826113ad565b91505060608301516115d16060860182611347565b5060808301516115e46080860182611347565b5060a08301516115f760a0860182611418565b5060c083015161160a60c0860182611418565b5060e083015161161d60e0860182611347565b50610100830151611632610100860182611347565b50610120830151611647610120860182611433565b508091505092915050565b600061165e8383611571565b905092915050565b6000602082019050919050565b600061167e82611545565b6116888185611550565b93508360208202850161169a85611561565b8060005b858110156116d657848403895281516116b78582611652565b94506116c283611666565b925060208a0199505060018101905061169e565b50829750879550505050505092915050565b600060208201905081810360008301526117028184611673565b905092915050565b61171381611406565b82525050565b600060208201905061172e600083018461170a565b92915050565b600080fd5b600080fd5b7f4e487b7100000000000000000000000000000000000000000000000000000000600052604160045260246000fd5b6117768261139c565b810181811067ffffffffffffffff821117156117955761179461173e565b5b80604052505050565b60006117a86112d0565b90506117b4828261176d565b919050565b600067ffffffffffffffff8211156117d4576117d361173e565b5b6117dd8261139c565b9050602081019050919050565b82818337600083830152505050565b600061180c611807846117b9565b61179e565b90508281526020810184848401111561182857611827611739565b5b6118338482856117ea565b509392505050565b600082601f8301126118505761184f611734565b5b81356118608482602086016117f9565b91505092915050565b61187281611406565b811461187d57600080fd5b50565b60008135905061188f81611869565b92915050565b60008060008060008060c087890312156118b2576118b16112da565b5b60006118c089828a01611305565b965050602087013567ffffffffffffffff8111156118e1576118e06112df565b5b6118ed89828a0161183b565b955050604087013567ffffffffffffffff81111561190e5761190d6112df565b5b61191a89828a0161183b565b945050606061192b89828a01611305565b935050608061193c89828a01611305565b92505060a061194d89828a01611880565b9150509295509295509295565b611963816112e4565b82525050565b600060208201905061197e600083018461195a565b92915050565b60006020828403121561199a576119996112da565b5b60006119a884828501611880565b91505092915050565b600081519050919050565b600082825260208201905092915050565b6000819050602082019050919050565b60006119e98383611347565b60208301905092915050565b6000602082019050919050565b6000611a0d826119b1565b611a1781856119bc565b9350611a22836119cd565b8060005b83811015611a53578151611a3a88826119dd565b9750611a45836119f5565b925050600181019050611a26565b5085935050505092915050565b60006080830160008301518482036000860152611a7d82826113ad565b9150506020830151611a926020860182611418565b5060408301518482036040860152611aaa82826113ad565b91505060608301518482036060860152611ac48282611a02565b9150508091505092915050565b60006020820190508181036000830152611aeb8184611a60565b905092915050565b600082825260208201905092915050565b6000611b0f826119b1565b611b198185611af3565b9350611b24836119cd565b8060005b83811015611b55578151611b3c88826119dd565b9750611b47836119f5565b925050600181019050611b28565b5085935050505092915050565b60006020820190508181036000830152611b7c8184611b04565b905092915050565b600082825260208201905092915050565b6000611ba082611356565b611baa8185611b84565b9350611bba818560208601611372565b611bc38161139c565b840191505092915050565b611bd781611427565b82525050565b600061014082019050611bf3600083018d61195a565b8181036020830152611c05818c611b95565b90508181036040830152611c19818b611b95565b9050611c28606083018a61195a565b611c35608083018961195a565b611c4260a083018861170a565b611c4f60c083018761170a565b611c5c60e083018661195a565b611c6a61010083018561195a565b611c78610120830184611bce565b9b9a5050505050505050505050565b60008060408385031215611c9e57611c9d6112da565b5b6000611cac85828601611880565b9250506020611cbd85828601611305565b9150509250929050565b7f4e487b7100000000000000000000000000000000000000000000000000000000600052602260045260246000fd5b60006002820490506001821680611d0e57607f821691505b602082108103611d2157611d20611cc7565b5b50919050565b7f4e487b7100000000000000000000000000000000000000000000000000000000600052601160045260246000fd5b6000611d61826112e4565b9150611d6c836112e4565b9250828203905081811115611d8457611d83611d27565b5b92915050565b7f4e487b7100000000000000000000000000000000000000000000000000000000600052603260045260246000fd5b6000611dc4826112e4565b91507fffffffffffffffffffffffffffffffffffffffffffffffffffffffffffffffff8203611df657611df5611d27565b5b600182019050919050565b7f4c697374696e67206973206e6f74206163746976650000000000000000000000600082015250565b6000611e37601583611b84565b9150611e4282611e01565b602082019050919050565b60006020820190508181036000830152611e6681611e2a565b9050919050565b7f41756374696f6e2068617320656e646564000000000000000000000000000000600082015250565b6000611ea3601183611b84565b9150611eae82611e6d565b602082019050919050565b60006020820190508181036000830152611ed281611e96565b9050919050565b7f42696420746f6f206c6f77000000000000000000000000000000000000000000600082015250565b6000611f0f600b83611b84565b9150611f1a82611ed9565b602082019050919050565b60006020820190508181036000830152611f3e81611f02565b9050919050565b6000611f50826112e4565b9150611f5b836112e4565b9250828201905080821115611f7357611f72611d27565b5b92915050565b60008190508160005260206000209050919050565b60006020601f8301049050919050565b600082821b905092915050565b600060088302611fdb7fffffffffffffffffffffffffffffffffffffffffffffffffffffffffffffffff82611f9e565b611fe58683611f9e565b95508019841693508086168417925050509392505050565b6000819050919050565b600061202261201d612018846112e4565b611ffd565b6112e4565b9050919050565b6000819050919050565b61203c83612007565b61205061204882612029565b848454611fab565b825550505050565b600090565b612065612058565b612070818484612033565b505050565b5b818110156120945761208960008261205d565b600181019050612076565b5050565b601f8211156120d9576120aa81611f79565b6120b384611f8e565b810160208510156120c2578190505b6120d66120ce85611f8e565b830182612075565b50505b505050565b600082821c905092915050565b60006120fc600019846008026120de565b1980831691505092915050565b600061211583836120eb565b9150826002028217905092915050565b61212e82611356565b67ffffffffffffffff8111156121475761214661173e565b5b6121518254611cf6565b61215c828285612098565b600060209050601f83116001811461218f576000841561217d578287015190505b6121878582612109565b8655506121ef565b601f19841661219d86611f79565b60005b828110156121c5578489015182556001820191506020850194506020810190506121a0565b868310156121e257848901516121de601f8916826120eb565b8355505b6001600288020188555050505b505050505050565b600060408201905081810360008301526122118185611b95565b9050612220602083018461195a565b9392505050565b7f41756374696f6e206973207374696c6c20616374697665000000000000000000600082015250565b600061225d601783611b84565b915061226882612227565b602082019050919050565b6000602082019050818103600083015261228c81612250565b905091905056fea26469706673582212203b89ded25d8788aef104830d63eba7c5c5cd05af89ae82a1cd91dc53f85a16e864736f6c634300081c0033",
  "linkReferences": {},
  "deployedLinkReferences": {}
}